:020000040800F2
:0800000000000220355B00083E
:08000800E49500000100000076
:10001000DFF804D005F08EBD000002204FF0100084
:1000200080F311884FF0020080F31488BFF36F8FC4
:10003000684680F309884EF00D0E7047EFF3098093
:10004000A0F1300181F309884FF00101EFF305823F
:10005000EFF3118320E9FE4F044605F023FE20460E
:10006000B0E8FE4F80F3098883F31188704700B52C
:1000700081B0EFF30580A0F10F0005F017FE01B08D
:1000800000BDEFF3098CACF1200080F30988044B2C
:10009000044A05492CE90F002CE90F0070470000C5
:1000A00000000001F95C0008AD000008074B00DF0C
:1000B000EFF3098C0CF1200C8CF30988704702F0E7
:1000C000DFBDEFF3098C9CE80F001847B100000872
:1000D00070B50128C0B0054635D0204B19464FF009
:1000E0000300ABBE13F8012F002AF7D1C82000216E
:1000F00001F04AFE1A4E05F01DFC86FB0034C317C2
:10010000C3EB2413322404FB1304C834154802F053
:1001100047F82346684614492A4604F03FF99DF8FB
:10012000003043B16B4619464FF00300ABBE13F8E5
:10013000012F002AF7D10B4802F036F82046E117CC
:1001400001F022FED7E7094B19464FF00300ABBE82
:1001500013F8012F002AF7D1C8E700BF2099000843
:100160001F85EB514434002048990008F898000896
:10017000027803463AB119464FF00300ABBE13F8BC
:10018000012F002AF7D170472DE9F0431A4B85B0B3
:1001900019464FF00300ABBE13F8014F002CF7D106
:1001A000164E174DDFF870801648174F4FF48059E0
:1001B00001F0F2FF22468DE840020395CDF8088059
:1001C00004201249124B4E44A83501F07BFD0F4923
:1001D000104B009601220395CDF80490029704205D
:1001E00001F070FDD8F8000001F098FD386805B006
:1001F000BDE8F04301F092BD789900085C3400201E
:10020000605400204434002040340020D100000815
:10021000A8990008B49900085834002000F04ABE9C
:1002200001207047406910B50468A468A04710BD5C
:100230002DE9F041A1F58071446901392568102943
:100240000AD8DFE801F00E1C3F6483090909090997
:1002500009090909090990006FF015063046BDE843
:10026000F08119680729F7D90C3494E803000026B7
:1002700082E8030008221A603046BDE8F081666A11
:10028000002EEBD004F13808404601F089FF00262B
:1002900001F0E6FC012704F1300506E0E76401F017
:1002A0008FFF002808BF6FF00306636D2846002B00
:1002B000F4D1A36A002BF1DC01F0EEFC404601F022
:1002C00073FFCBE7666A002EC8D004F138063046CB
:1002D00001F066FF01F0C4FCA36A002B06DD0022DA
:1002E000A2622B692046E2612262984700221346EF
:1002F000AD68204640F20311A847E36C002B5BD1A8
:1003000001F0CAFC304601F04FFF0026A6E7666EFA
:10031000002EA3D004F17807384601F041FF01F028
:100320009FFCD4F88C30002B3BD10026A6664FF4FE
:10033000827132463346E665AD6820462666A84798
:1003400001F0AAFC384601F02FFF87E7636E03BB7C
:10035000666A002E82D0012304F13000236501F08B
:1003600035FF00267AE719680F297FF675AF10214F
:100370001960636E136043B1A36E5360666A966042
:100380002EB1A36A0026D36068E75360F6E7D66013
:1003900064E7012304F17000C4F8903001F016FF07
:1003A000D6E70123C4F8903004F1700001F00EFF8D
:1003B0000023C4F88C30B8E70123236504F1300032
:1003C00001F004FF0023E3649AE700BF2DE9F84F32
:1003D00044699146264656F8785B0F46304601F050
:1003E000DFFE626E0023C4F89030C2B9D9F8003045
:1003F000002B56D04FF001086B682046984707F84D
:10040000010BD9F8003042469A4208F10108F3D3B3
:100410000025304601F0C8FE2846BDE8F88F1D468D
:100420004FF0010A01F01CFC04F1700BA84610E02B
:10043000236EA26D0135D35C07F8013B236E626E1B
:1004400001339342236608BFC4F86080A36E013B6A
:10045000A366D9F800309D421FD2A36E002BE7DCC3
:10046000C4F88CA0584601F0ABFE08B9C4F890A0BF
:10047000D4F89030002BECD00023C9F80050C4F819
:100480009030C4F88C306FF0030501F005FC304665
:1004900001F08AFE2846BDE8F88F002501F0FCFB3C
:1004A000F5E71D46B5E700BF2DE9F84F4469D2F8DE
:1004B0000080A14659F8386B924648460F4601F035
:1004C0006FFE636A0025C346256593B9A8451D469E
:1004D00009DD795D3368204698470028F9D0013559
:1004E0004545F6D10025484601F05EFE2846BDE8A8
:1004F000F88F01F0B5FBB8F1000F31DD012504F1F3
:10050000300810E0E26917F801EBA069511C00F80F
:1005100002E0E161E361A36A0BF1FF3B0133A362F7
:10052000BBF1000F27DDE369626AA16A01339A42D9
:1005300008BF00238A42E5D1F3682046E564984766
:10054000E36CFBB9236D002BEAD0DAF8002000231E
:10055000CBEB0202CAF800206FF003052365E364C9
:10056000F3682046984701F097FB484601F01CFECF
:100570002846BDE8F88FF36820460025984701F02B
:100580008BFBF2E7636D40465B44636501F018FE48
:1005900000B92565636DCBEB03036365D2E700BF4C
:1005A000826E436E10B49A420BDAC36D846D5A1C8E
:1005B000E154C265C26D436E9A4210D0836E01331E
:1005C0008366D0F88C300BB910BC704700F1700313
:1005D0000022C0F88C20184610BC01F0F7BD0023A3
:1005E000C365EBE7836A70B5002B0446056820DD20
:1005F00000260DE0226A636A01322262226A9A4270
:1006000008BF2662A36A013BA362A36A002B10DD28
:10061000226AA1692B68895C204698470028E9D1A5
:10062000A26A616AE36A8A1A9A4201DBE36C73B9CF
:1006300070BD2B6920469847E36C002BF8D000234F
:1006400004F13000E364BDE8704001F0BFBD04F187
:100650003003E0641846BDE8704001F0B7BD00BF4C
:1006600038B5436904462BB9426AA2B9636E13B91F
:100670000123636138BD002304F178052846C4F8DE
:100680008C30C4F8903001F087FD04F170002946E9
:1006900001F092FDECE700F138050365E364636562
:1006A000284601F079FD04F13000294601F084FD6F
:1006B000636ADA1C33EA230328BF13469B10E36204
:1006C000636E002BD4D0D6E743690522012083E86E
:1006D00005007047036800205B699960704700BFA0
:1006E00030B4446940F28125A942A06802D030BCF0
:1006F00000F09CBC1B68082B18BF6FF0150304D1D9
:1007000092E8030084E803000023184630BC7047D9
:1007100030B4446940F20125A942A06802D030BC3F
:1007200000F076BC1968072998BF6FF0150406D948
:1007300094E8030082E80300082200241A6020469F
:1007400030BC70474369986800F058BC2DE9F04F01
:100750009046D8F80030476900249C4283B08A460E
:10076000D7F808904FF0010B1ED248460DF1070153
:100770006A46CDF800B000F017FC064600285DD1AF
:100780009DF80730651C0AF804307A68110706D412
:100790000A2B26D00CD8082B0ED0530738D42C4661
:1007A000D8F800309C42E0D3C8F8004000262BE087
:1007B0000D2B0FD07F2BF0D1651E002C3BD05207A4
:1007C000EDD5032348461F496A4600932C4600F0A6
:1007D000DDFBE5E79307E2D4D00702D50A238DF8C5
:1007E0000730510709D53B68DA071BD50223484675
:1007F00015496A46009300F0C9FB9DF80730AA44EA
:100800000AF8013CC8F80050304603B0BDE8F08F4C
:1008100048460DF107016A46CDF800B02C4600F0BD
:10082000B5FBBDE7012348460DF107016A46009379
:1008300000F0ACFBE1E700252C46B1E7C8F800402A
:10084000E2E700BFC0990008C49900082DE9F04F05
:10085000D0F81490002393B00E46D9F808801168A0
:1008600017461D4611936FF008001C464FF00D0A05
:100870008C421DD2325D0A2A18BF119B1BD00DF18C
:10088000480B0BEB030C013301343E2B0CF8442CCA
:10089000119301D88C42EBD1404601A911AA00F076
:1008A00075FBB0B93968119B8C421D441190E1D39E
:1008B00013B0BDE8F08FD9F8003013F0010F119B91
:1008C0001FBF0DF1480B0BEB030C0CF844AC0133CC
:1008D000D5E73D60ECE700BF0120704708B540F266
:1008E0008113994202D06FF0150008BD02480349F8
:1008F00001F024F8002008BDE8990008EC990008F0
:1009000000B583B00DF1070000F064FA9DF8070010
:1009100003B000BD084608B500F046FA012008BD46
:10092000044A1368591C116003B17047024801F072
:1009300063BE00BF70040020882E0020FFF7F0BFC8
:10094000194A4DF683631168C4F21B33A3FB0121DE
:10095000F0B44EF214024EF21803890C41F2883CB6
:10096000CEF20002CEF2000315681C6801352D1B83
:100970006045B4BF07466746B5FBF1F514681E68CD
:100980000134A41BB4FBF1F4641B44BF04F51C54F4
:100990001034BC42F2DB002C08BF0124001B0028ED
:1009A000E2DCF0BC704700BF305A00204EF60C531A
:1009B0000422CEF20003C0F2FA521A60FEE700BF32
:1009C00000207047811C70B532D0421C2AD0451CD3
:1009D0006E01C31C14D01C4CA269BAB15369042126
:1009E00010689847194B9E19A661A169184B0A46D1
:1009F0001D6088B14B69086805219847012070BDCA
:100A0000114C0026A2693546002AE7D10F4B9E19EA
:100A1000A6610F4BA2691D605369042110689847B5
:100A2000012070BD0A4B1868002808DD013870BD30
:100A3000054B00229A61064B1860012070BDF0D171
:100A40006FF0020070BD00BF88010020DC040020B0
:100A500078030020811C1BD0421C13D0C31C09D07A
:100A6000114B0130114A1860114B02EB40125A61D0
:100A7000012070470C4B002018600C4A0C4B0120E1
:100A80005A617047084B1868002808DD0138704724
:100A9000074B00225A61044B18600120704700D0B8
:100AA00070476FF00200FBE77C030020DC040020AD
:100AB0008801002008B540F28813C2F200039B6948
:100AC00018681B69984708BD70B514460D4642B1B9
:100AD000044EB36918681B699847013C05F8010B7F
:100AE000F7D170BD8801002008B540F28813C2F22A
:100AF00000039B6918681B69984708BD08B540F258
:100B00008813C2F200039B691868DB68984708BD28
:100B100070B514460D4642B1044EB36915F8011B79
:100B20001868DB689847013CF7D170BD8801002048
:100B300070B514460D4642B1044EB36918681B697E
:100B40009847013C05F8010BF7D170BD88010020E2
:100B50000EB4002003B070472DE9F04FDFF80CA170
:100B600040F28812DAF80030C2F2000285B09469CF
:100B7000002B6AD01023EFF31182194681F31188FC
:100B8000DFF8EC90DFF8ECB0019220682421E368F4
:100B9000984720684F21E3689847DAF800304625E7
:100BA0003426002B27DD4FF04F0800251BF80520C9
:100BB0002068130919F8036002F00F0219F8027097
:100BC0003146E368984720683946E3689847DAF881
:100BD0000030BE190135B0449D4208F0FF08E5DB46
:100BE00049F600224FEA1813C0F6000208F00F0879
:100BF000D65C12F8085020682321E36898472068E3
:100C00003146E368984720682946E368984720689A
:100C1000236998472B288DF80F0010D00DF10F0095
:100C2000012100F033F998B99DF80F302D2BACD08D
:100C30002068236998472B288DF80F00EED10023F8
:100C4000CAF80030019B83F3118805B0BDE8F08F2E
:100C500040F288120123C2F2000253640023CAF852
:100C60000030019B83F31188EFE700BF1C050020D3
:100C7000009A0008740400200EB400B59DF80430FA
:100C8000082B04D000205DF804EB03B07047FFF799
:100C900063FFF7E70D2910B409D0074B074C1A681A
:100CA000501C0A29A154186003D0642801D010BC3C
:100CB000704710BCFFF750BF1C05002074040020D3
:100CC00070B5144606460D4632B115F8011B304684
:100CD000FFF7E0FF013CF8D170BD00BFF8B540F26E
:100CE0008814C2F20004636B4FF0FF309847636BC7
:100CF00005466FF00200984740F6C147636940F629
:100D0000C92640F6954040F6B52140F67942C0F636
:100D10000007C0F60006C0F60000C0F60001C0F6ED
:100D200000025F609E60D86019615A61636B28465B
:100D30009847F8BDF8B540F28814C2F20004636B1E
:100D40004FF0FF309847636B05466FF002009847FD
:100D500040F61137636940F6313640F6FD2040F623
:100D6000E92140F65132C0F60007C0F60006C0F691
:100D70000000C0F60001C0F600025F609E60D8600F
:100D800019615A61636B28469847F8BD08B5044B52
:100D9000187820B901221A70024B5B6B984708BD86
:100DA000D80400208801002010B5094C0146636971
:100DB00063B11868DB689847636C03B910BD044BD6
:100DC00000205864BDE8104000F070B8A369F0E757
:100DD00088010020074B10B55A69044622B11068FB
:100DE00013699847207010BD9B6918681B69984764
:100DF000207010BD8801002038B51D491D4B002210
:100E000041F822300132402A194CF9D11721C0F2A1
:100E1000080121601849194A216419490025A16473
:100E2000E564A563136053609360D36013615361FD
:100E30009361D361136253629362D362136353630A
:100E40009363D3630F4B6FF0010023630E4B636317
:100E5000FFF7B8FD6FF00100FFF7FCFD05F0E0FAC9
:100E60002846FFF7AFFD2846FFF7F4FD656438BD5F
:100E700088010020C1090008AD090008DC04002039
:100E800041090008C5090008550A000851B1013997
:100E9000435C032B08D029B10139435C032BFAD101
:100EA000012070470846704701207047BEBE70475A
:100EB00005F04CB970B50E4E3368C3B90D4C0E4DEC
:100EC000AC4206D111E043F00103A3612034AC42EF
:100ED0000BD0E36820469847A3690028F3D123F09C
:100EE0000103A3612034AC42F3D10123336070BD10
:100EF00020050020F0030020300400202DE9F041FF
:100F0000204A214B82B09A4201920C4612D01168BD
:100F100084469CF80060654688460CF1010C76B169
:100F200011F8017B002F21D0BE42F2D020329A422C
:100F30000192ECD16FF0010002B0BDE8F0810978B8
:100F40000029F3D15068D0B16946FFF7D7FF0028D8
:100F5000F2D1019A136933B101A800992A46984742
:100F60000028E9D1019A22600020E5E718F8011C69
:100F70002F29E7D020329A420192C8D1DAE70090B7
:100F8000E7E700BFF003002030040020836810B5BD
:100F90001B6833B10AB114680CB1984710BD2046E4
:100FA00010BD6FF0C90010BD836810B55B6833B128
:100FB0000AB114680CB1984710BD204610BD6FF0FF
:100FC000C90010BD38B58468A46834B10AB1156889
:100FD0000DB1A04738BD284638BD6FF0C90038BDF7
:100FE00038B58468E46834B10AB115680DB1A0471A
:100FF00038BD284638BD6FF0C90038BD08B58368D4
:101000001B690BB1984708BD6FF0C90008BD00BF50
:1010100038B58468646934B10BB11D680DB1A0475F
:1010200038BD284638BD6FF0C90038BD38B5846872
:10103000A46934B10BB11D680DB1A04738BD284675
:1010400038BD6FF0C90038BD6FF0C900704700BFF0
:101050006FF0C900704700BF6FF0C900704700BF54
:101060006FF0C900704700BF6FF0C900704700BF44
:101070006FF0C900704700BF6FF0C900704700BF34
:1010800030B405462DB16C1E012014F8013F621BDF
:101090000BB930BC7047B2F5006F00DD0020A3F142
:1010A0000A0CDCF1000242EB0C02A3F1080CDCF1AB
:1010B000000141EB0C010D2B08BF42F00102092B8E
:1010C00008BF41F001014AB941B9A3F120021B2B2D
:1010D000D2B203D05E2A01D90846DAE70028D8D078
:1010E000D3E700BF2DE9F04F06460F4697B056EA0A
:1010F00007010192DDF880B01ED130248DF8084040
:101100000DF109030DF10808591E0B46019A01E083
:1011100013F8014D434502F8014BF9D1C3F1010227
:101120008A18CB1A0199581C89180191019B002239
:101130001A7017B0BDE8F08F0DF1080899464FEA14
:10114000E37A4546304639464A46534608F0ECF9BC
:101150001BF80240304639464A46534605F8014BD3
:1011600008F0E2F906460F4656EA07022B46E9D197
:101170004545C9D10020D9E78A684B689A4209DA07
:101180000A68134603F8010B0B60002353708B6849
:1011900001338B60704700BF0A2810B5044604D0A5
:1011A0002046BDE81040FFF7FFBD0D20FFF7FCFD16
:1011B000F6E700BFFFF7F0BF704700BF40F2803393
:1011C000C2F200031860704710B50446007828B1D9
:1011D000FFF7E2FF14F8010F0028F9D110BD00BF9E
:1011E0002DE9F04F8BB0149F9246019380468946BB
:1011F000002F0CBF2027302702AC0DF107030DF1A3
:10120000270203F8017F9342FBD158EA090118D164
:1012100030238DF80830159B01259D42B8BF1D462F
:10122000019B2D2B2CD0013D002D07DB01356519CD
:1012300015F8010DFFF7B0FFA542F9D10BB0BDE8DD
:10124000F08FDFF858B0002540464946002352464B
:1012500008F06AF912F80B604046494652460023EE
:10126000665508F061F980468946013558EA090259
:10127000EAD1159B9D42B8BF1D46019B2D2BD2D1B3
:101280006B1E0AA9CA1812F8202CBA4208BF1D46C4
:10129000019A4B1903F8202CC6E700BF009A0008FA
:1012A00030B583B00093069B0D4614460193002190
:1012B0002A462346FFF794FF03B030BD00B5002354
:1012C00083B010212B220093FFF7EAFF03B000BD8B
:1012D0002DE9F04F8346A1B0104616468A46099381
:1012E000FFF7CEFE002800F0DA8200200021CDE9D1
:1012F00006010022089205923078002800F05581FE
:10130000252840F0478275782D2D00F05A82002064
:1013100002360B90302D04BF16F8015B4FF0010C24
:10132000A5F13003DAB218BF4FF0000C0024092AEF
:101330000DD83246002412F8015B04EB840403EB61
:101340004404A5F13003D9B209291646F3D92E2D4C
:1013500000F0448200226C2D174600F037827A2D6F
:1013600004BF16F8015B0127A5F14203362B00F2FA
:101370009D80DFE803F01D9B1D9B9B9B9B9B9B9B84
:101380009B9B9B9B9B9B9B9B9B1D9B9B1D9B9B9BA9
:101390009B9B9B9B9B9B1D9B1D9B9B9B9B9B9B9B99
:1013A0009B9B9B9B1C9B9B9B9B1D9B9B1D000127B1
:1013B000002A00F0FC810999CB1D23F0070303F1FB
:1013C00008000990D3E90001CDE90601A5F1640107
:1013D0004B4243EB0103442D08BF43F00103002BB4
:1013E00000F0DF81DDE90601002871F10001C0F2A3
:1013F000438200200A90A5F12503532B00F230818F
:10140000DFE813F027012E012E012E012E012E01FF
:101410002E012E012E012E012E012E012E012E0154
:101420002E012E012E012E012E012E012E012E0144
:101430002E012E012E012E012E012E012E01E10082
:10144000D70056012E012E012E012E012E012E0154
:101450002E012E012E012E012E012E012E012E0114
:1014600057002E0156012E012E0156012E012E018C
:101470002E012E012E012E012E012E012E01E10042
:10148000D70056012E012E012E012E012E012E0114
:101490002E012E012E012E012E0138012E012E01CA
:1014A00057002E0156012E012E01560100230A93EA
:1014B000A1E7099B1D681F1D002D00F0148228461E
:1014C000CDF810C0FFF7DCFDDDF810C0002800F0FB
:1014D00013822B78002B00F0198200232A460C93EC
:1014E00012F8011F01330029FAD15A1E0C93E41A95
:1014F000089209970A9B671E03B927462023BCF16F
:10150000000F04D00A983023002840F0BF810B98C8
:10151000D0B97A1E0D92002FD8BF0D9F14DDCDE9F2
:101520000E890446A8461D46284651460134D84730
:10153000BC42F9D105980D9A431CD31805934FF07E
:10154000FF374546DDE90E890A9B002B40F0678195
:101550000C9A002A12DD089C013C15F8010B51463B
:10156000D847631C002BF7DC089A059822EAE2733F
:10157000411C013AD21A5918089205910B99002979
:101580003FF4BAAE002F7FF7B7AE7D1E00242020B7
:1015900051460134D847BC42F9D1059A3078531CE2
:1015A000EB18059300287FF4ABAE059821B0BDE899
:1015B000F08F099B514618781C1DD847059809944F
:1015C0000130059098E6002C00F03281621E0C94E8
:1015D0000024002A089210AD8CDD0024089F10AD75
:1015E0000021CDF80CB0CDF808A0CDF834C00E9491
:1015F000B4462E46DDE90645C1F12000A1F12003E5
:1016000024FA01F805FA00F045FA03F245FA01F967
:1016100040EA080818EA230838BF90464FF0000B4C
:101620004FF0010A09EA0B0308EA0A0252EA030B27
:101630000CBF2E23312373540131B942DCDB354614
:101640000E9C6646DDF80CB0DDF808A0DDF834C06D
:1016500050E725205146D8470598013005904BE6C4
:1016600025205146D84751462846D847059902318A
:10167000059141E630205146D84778205146D84759
:10168000059A4FF0010C02320592082410ADA24FCA
:101690001023DDE906012A46CDF810C00097FFF7B8
:1016A00021FD431E0C90241A0893DDF810C021E799
:1016B000443D342D00F2198101A353F825F000BFF9
:1016C00047180008EB180008EB180008EB18000892
:1016D000EB180008EB180008EB180008EB180008DE
:1016E000EB180008EB180008EB180008EB180008CE
:1016F000EB180008EB180008EB180008EB180008BE
:10170000EB18000847180008EB180008EB18000851
:101710006B180008EB180008EB180008EB1800081D
:10172000EB180008EB180008EB180008EB1800088D
:10173000EB180008EB180008EB180008EB1800087D
:1017400047180008EB180008EB180008EB18000811
:10175000EB180008EB180008EB180008EB1800085D
:10176000EB180008EB180008EB180008EB1800084D
:101770008D160008EB180008EB180008EB1800089D
:10178000EB18000847180008EB180008EB180008D1
:101790008D1600085146D847059B01360133059345
:1017A000AAE5002F2ED0002007900A9323E6002FF1
:1017B0002DD009990B6804310693DB170991079323
:1017C00004E60121B5780B910336A3E535786C2D3D
:1017D00000F08480013600220127C0E516F8015B85
:1017E0000CF1010CA5F13003DBB2092B3FF6B2ADD1
:1017F000334613F8015BA5F13002D2B2092A1E4626
:10180000F7D9A7E592B9002107910A92F3E5099863
:1018100003680430D917099006930791D6E5184656
:101820005146D84705980130059091E60A97E2E5C0
:10183000002A14BF4022202214BF3F231F230C92F2
:1018400008935442CAE610AD344F2A460A23DDE914
:101850000601CDF810C00097FFF744FC421E0C9023
:10186000241A0892DDF810C044E610ADDDE9060147
:101870002A4610232A4FECE7DDE90601404261EBDE
:101880004101CDE906012D210A91B4E55146D84721
:1018900005990022013105910A92302337E621484B
:1018A000FFF792FC3046FFF709FD1F48FFF78CFC5D
:1018B000DDF824A00AF1200455462020FFF76CFC37
:1018C00055F8040BFFF7FAFCA542F6D117484FF084
:1018D000000BFFF779FCCDF814B066E601227578AD
:1018E000174602363BE5124DF3E5089A10AD531E3C
:1018F000A41A0C920893FDE50E48FFF765FC2846F4
:10190000FFF7DCFC0C4DDDF810C0E2E54FF0FF32D4
:10191000099708920C93EDE54C9A0008409A00084C
:10192000009A0008209A0008389A00083C9A00089B
:10193000149A0008609A00081C9A00080FB410B5A9
:1019400082B004AC54F8042B40F28033C2F200039E
:101950001868002123460194FFF7BAFC02B0BDE8E5
:10196000104004B0704700BF00B52B22002883B0A0
:1019700001DA40422D2200230A210093FFF790FC58
:1019800003B000BD0EB430B584B007AC54F8042BDE
:1019900041F27913C0F60003054603941846234626
:1019A0004FF4806401946946002400950294FFF787
:1019B0008FFC029804B0BDE8304003B0704700BF10
:1019C0000CB470B584B008AC54F8042B41F2791310
:1019D000C0F6000306464D1E03941846694623468A
:1019E0000024009602940195FFF772FC029804B05F
:1019F000BDE8704002B0704770B5044684B041F253
:101A000079150E460194C0F600054FF48064134624
:101A10000294284601A9324600240394FFF758FC9B
:101A2000039804B070BD00BF70B541F2791484B062
:101A3000C0F6000406464D1E204601A9002401966A
:101A400002950394FFF744FC039804B070BD00BFF7
:101A500010B440F28033C2F200031C6802460B4609
:101A60002046002110BCFFF733BC00BF91422DE996
:101A7000F843164638BFC1EB0206002E0C46054659
:101A8000994635DDB9F1000F34D0C9EB04011B488C
:101A9000A8474FF0010800270AE0E15D1848A84771
:101AA000072F0BD0B8F1100F0BD0013708F1010848
:101AB000B742F2DB1348A847072FF3D11248A847D3
:101AC000F3E71248A84700272021B74205DAE15D75
:101AD000A1F120035E2B88BF2E210D480137A847B6
:101AE000102FF1D10B48103EA8471034002EC9DC4E
:101AF000BDE8F88321460148A847CAE7749A000860
:101B00007C9A0008849A0008A49A0008889A000821
:101B10008C9A0008909A000830B441F63D140D46A6
:101B2000C0F60004134601462A46204630BCFFF7A3
:101B30009DBF00BF0022FFF7EFBF00BF88422DE925
:101B4000F0410D4638BFC0EB0105002D044690461C
:101B50001ADDB8F1000F1DD0C8EB04011048FFF7E3
:101B6000EDFEAF100026B74210DD54F826100D48E8
:101B7000FFF7E4FE0136042EF5D10B48103DFFF7C8
:101B8000DDFE1034002DE4DCBDE8F0810748FFF7EE
:101B9000D5FEEFE721460248FFF7D0FEE1E700BFA0
:101BA000749A0008949A0008749900089C9A000896
:101BB0000022FFF7C3BF00BF88422DE9F8430D465E
:101BC00038BFC0EB0105002D0446914626DDB9F172
:101BD000000F2BD0C9EB04011748FFF7AFFE4FEA07
:101BE000650800260127B0450CDD34F816101348AF
:101BF000FFF7A4FE032E13D0082F08D001360137BB
:101C0000B045F2DC0E48FFF799FE082FF6D10D48DB
:101C1000103DFFF793FE1034002DD8DCBDE8F883AB
:101C20000948FFF78BFE01360137E9E721460248F4
:101C3000FFF784FED3E700BF749A0008A89A000853
:101C4000A09A000874990008A49A00080022FFF7DF
:101C5000B3BF00BFFFF79AB808B501F075FB00BF2E
:101C600040F29033C2F200031A6801321A607047E2
:101C700008B5084B1A6801321A601A68012A04D99B
:101C80001868013818BF186000D008BD01F0C8FA04
:101C9000FBE700BF9003002008B5064B1A6802B9A5
:101CA00008BD1868013818BF186000D008BD01F0E1
:101CB000B7FAFBE79003002040F29033C2F2000332
:101CC00018687047F0B51D4685B000950A9D0D9CBB
:101CD00086460F46164601950B9D334620467146B3
:101CE0003A46029500F0AEFA0C9B1C6005B0F0BDC0
:101CF00000F0F6BCC36B10B5102B044606D000F004
:101D0000AFFDE36B102B01D0002010BD204600F08A
:101D10005BFB012010BD00BF00F04EBCC36B10B5D3
:101D2000102B044604D02046BDE8104000F064BCEF
:101D300000F02AFBF7E700BF00F092BD00F0A4BC62
:101D400040F68463C2F2000318681C3001F048B901
:101D500040F68463C2F2000318687047B0F84C0084
:101D6000704700BF40F62850C2F20000704700BF25
:101D700000F0BEBD836B0BB9406A7047406B704783
:101D8000406A7047704700BF10B440F68463C2F2E7
:101D900000031C6802460B46204610BC00F00ABE39
:101DA000006870474068704738B51B4B1A680132AD
:101DB0001A60026892B9194A1268154612B1D2F82F
:101DC000A0502A46B5F84C50026001240D801868D6
:101DD00001380FD0104B1860204638BD0D88B2F87E
:101DE0004C40A5420AD00022026014460A801868BE
:101DF0000138EFD101F014FA204638BD074C2468B1
:101E0000A242F0D0D2F8A020002AECD00260B2F8B2
:101E10004C2001240A80DAE790030020D00D002036
:101E200010B510490B6801330B600F4B1A6814464C
:101E30000AB1D2F8A0404CB1B4F84C30834205D07E
:101E4000A24202D0D4F8A040F5E700240868013887
:101E500003D0044B1860204610BD01F0E1F9204684
:101E600010BD00BF90030020D00D002070B5184BAE
:101E70001C6801341C60B0F84C408C4207D0002430
:101E8000186801381BD0124B1860204670BDEAB1AB
:101E9000C66BD0F89C50816B106094809660D560C2
:101EA00089B9416A0D460468406851610021946116
:101EB0001561D0611162012418680138E3D101F085
:101EC000AFF9204670BD456B416AECE71446D7E791
:101ED0009003002000F0C2BD00F0E4BD40F6846332
:101EE000C2F200031B6803EB8003D3F88400704741
:101EF00040F68463C2F200031B6803EB8000843069
:101F0000704700BF40F68463C2F200031B6803EB16
:101F10008003C3F884107047F0B583B0009340F697
:101F20008465089B40F6D8540F461646C2F2000559
:101F3000C2F2000401462A68019320463A4633461D
:101F400000F01AFE03B0F0BD40F6846240F6D853AC
:101F5000C2F20002C2F2000312680146184600F005
:101F600019BE00BF00F06EBDF0B583B00A9C1D46DF
:101F700086460F4616460095089D33462046714614
:101F80003A46019500F02AFE099B1C6003B0F0BDA3
:101F900000F032BE00F0C8BE00F0EABE00F006BF9E
:101FA000002200F00BBF00BF00F01EBF00F034BFE6
:101FB00000F044BF00F04EBF00F04EBF00F058BF2D
:101FC00000F058BF00F058BF704700BF00207047B6
:101FD00038B50C4605460121204604F07DFF2C60F3
:101FE00038BD00BF04F080BF00F10801D1E9000155
:101FF000704700BFC0E90223704700BF012105F010
:1020000085B800BF114605F081B800BF30B585B076
:102010001C460290039104AB8DE803001546204650
:1020200013E9060004F092FF2C6005B030BD00BF3C
:1020300004F0A4BF0860704784B08DE806000392E6
:1020400000F11403029104AA12E9030083E80300DB
:1020500004B0704782B002AA1431034603C902E9F2
:102060000300009A18461A60019A5A6002B070473D
:1020700042F63473C2F200031868704742F63473B4
:10208000C2F200031B68D3E902017047F8B5069C51
:1020900086460F4616461D46204671463A4633464A
:1020A00004F096FF2C60F8BD05F0D6B805F00AB82C
:1020B00005F0E2B805F09EB805F0B8B838B50C46A2
:1020C0000546084601F078FC2C6038BD01F07ABC6A
:1020D00001F0A0BC01F000BD01F080BD01F0CABE5E
:1020E00001F0B4BD01F010BE01F08EBE4068704733
:1020F0008068003018BF0120704700BFC068003002
:1021000018BF0120704700BF01F06CB901F06EB933
:1021100001F07EB901F0D8B901F054BA01F06CBAFF
:1021200010B50C4601F088FA206010BD002101F0C6
:1021300085BA00BF01F086BA01F0D2BA01F0BCBA8C
:1021400031B112F0FC0F01D00020704701F0D4BB78
:102150000846704730B4DDE9024541B112F0FC0F8A
:1021600002D0002030BC704730BC01F03DBB0846B7
:10217000F8E700BF31B112F0FC0F01D0002070472A
:1021800001F006BB084670470068704740680030A1
:1021900018BF0120704700BF01F090BE01F09EBE45
:1021A00001F0B2BE01F02ABF01F054BF01F098BFA8
:1021B00001F0B4BF01F0C4BF01F0D4BF01F0DABF39
:1021C000016801F0EBBF00BF02F024B802F040B894
:1021D000016802F067B800BF0023036009B1012362
:1021E00003607047704700BF01230360704700BF62
:1021F00000230360704700BF03681BB9012303601D
:1022000018467047002070470068704710B40B46AE
:102210001024EFF31182214681F311881A60012303
:10222000036010BC704700BF0023036081F3118876
:10223000704700BF024B1A6801321A6030BFFAE7DC
:10224000D40D00202DE9F041079E089F044600258B
:10225000944607EB060E884642462146C4F810C055
:102260006361C4F80CE0A56184E8C000A66000F1D9
:102270001C0001F06DF83D4B04F1500019683C4A18
:10228000034604F0A5FE3B4B04201A88E063511C72
:102290001980069B0120E4672064656484F88050FF
:1022A00084F88150A4F84C20C4F88450C4F88850B5
:1022B000C4F88C50C4F89050C4F89450C4F89850A6
:1022C000C4F89C302C490B681B180B602B4D2A68F6
:1022D000002A48D094420CD0D2F8A000824218BF05
:1022E000034604D132E0D3F8A0309A4230D09C4269
:1022F000F9D12C600B68581E32D01F4B1860204853
:10230000214600F031FEE768022327F007073E1F51
:1023100026F00F0545F8443CA5F14400A5F138022C
:102320000C230021013B42F8041FFBD1154A002178
:10233000C1F2111147F8042C8560C4600161866305
:1023400002644360E0602046BDE8F081A242D0D044
:10235000C4F8A0002C60C2F8A0400B68581ECCD175
:1023600000F05EFFCBE7C4F8A040C2E7342F0020A6
:10237000E12400088803002090030020D00D0020F5
:10238000FC0D00204528000870B5044684B000F11B
:10239000500004F04BFF0B48214600F0E7FDA36B13
:1023A00073B9616A6068D4F89C60256822696369C2
:1023B0000290204600960195FFF744FF04B070BDDF
:1023C000616BEFE7FC0D002038B5014604461C4860
:1023D00000F0CCFD1B480368013303601A4D2968E7
:1023E0000A4602E099420AD01A46D2F8A0309C422E
:1023F000F8D1D4F8A0308C42C2F8A0301BD00068CD
:10240000013815D00F4B18600023A4F84C3004F1AC
:10241000500004F021FFE26904F11C03934205D04F
:10242000216A5160216A23620A60E361204638BD57
:1024300000F0F6FEE8E7D4F8A0302B60DFE700BF3D
:10244000FC0D002090030020D00D002038B50C4B6F
:102450001D680C4C236801332360EB6B23B90A48D9
:10246000294600F03BFDEB6B43F00103EB63206872
:10247000013802D0034B186038BD00F0D1FE38BDE2
:10248000840E002090030020FC0D002038B5054686
:10249000114C236801332360C36B9A0705D1206870
:1024A000013816D00C4B186038BDC06A23F0030306
:1024B000EB6328B1294600F039FE0022EB6BEA629B
:1024C000002BECD10548294600F04EFE206801386B
:1024D000E8D100F0A5FE38BD90030020FC0D0020DF
:1024E00010B5C86A174C23680133236090F8803018
:1024F000072B19D890F98030012202FA03F313F068
:10250000F30207D02068013818BF206013D100F013
:1025100087FE10BD13F008010ED15B0704D5072319
:1025200080F8801080F88130FFF7B0FF2068013814
:10253000EDD0044B186010BD032380F8802080F894
:102540008130F1E79003002010B50F4C2368013370
:102550002360C36B9A0708D4436C0133436420683B
:1025600001380DD0084B186010BD002380F8803072
:10257000072380F88130FFF789FF20680138F1D107
:1025800000F04EFE10BD00BF9003002010B5094BB7
:102590001A6801321A600022446C426418680138DB
:1025A00018BF186001D0204610BD00F039FE20464B
:1025B00010BD00BF9003002038B504460C4D2B68B9
:1025C00001332B60026CC36B0132026423B90948EA
:1025D000214600F083FCE36B43F00403E3632868C7
:1025E000013802D0024B186038BD00F019FE38BD2A
:1025F00090030020FC0D002010B501460F4C23680D
:1026000001332360036C012B08D00BB1013B036441
:10261000206801380ED0094B186010BDC36B002232
:1026200023F004030264C363002BF1D1044800F0DB
:102630009BFDEDE700F0F4FD10BD00BF900300200E
:10264000FC0D002010B501460D4C236801332360BA
:10265000036C33B1C36B002223F004030264C36331
:102660002BB12068013808D0054B186010BD054813
:1026700000F07AFD20680138F6D100F0D1FD10BDE0
:1026800090030020FC0D002010B5144C236801338A
:10269000236090F88030072B17D890F98030012202
:1026A00002FA03F313F0F10207D02068013818BFD3
:1026B000206011D100F0B4FD10BD13F00E0F04D056
:1026C000042380F8802080F88130FFF7DFFE206847
:1026D0000138EFD0014B186010BD00BF90030020FF
:1026E00038B50C4B1D680C4C22680132226018680A
:1026F000503004F09BFDEB6B102B05D01023EB63E7
:102700000648294600F0EAFB2068BDE8384000F0A2
:1027100087BD00BF840E002090030020FC0D002028
:102720002DE9F0432B4E83B034682B4D2B680133D9
:102730002B60636C002B13D0013B63642868013865
:1027400044D0254B186094F88130053B012B04D808
:1027500003B0BDE8F043FFF7C3BF03B0BDE8F083AB
:102760001E4A03271268D2E90289D6F800E018EB66
:1027700000083268D6F800C049EB010982F88130C0
:102780008EF880704B4642460CF150004FF0000826
:102790004FF00009CDE9008904F094FC94F88130F1
:1027A000002BCBD13168326881F8807082F881309B
:1027B000FFF74CFEE36B286843F00203E36300F08D
:1027C0002FFD3068503004F031FDB7E700F028FDF0
:1027D000B9E700BF840E002090030020342F0020B2
:1027E000164A38B51468164D2B6801332B60636C9C
:1027F00083B1013B6364286801381BD0104B18601B
:1028000094F88130053B012B03D8BDE83840FFF731
:1028100067BF38BD11681268012082F8813081F8E5
:102820008000FFF713FEE36B43F00203E3632868C5
:102830000138E3D100F0F4FCE2E700BF840E002091
:102840009003002010B504462146044800F040FDE6
:10285000606923699847FFF743FFF9E7FC0D002003
:1028600038B5204B04461B68984237D01E4D2B6864
:1028700001332B602046FFF7E5FE04F1500004F021
:10288000D5FC94F88130062B0FD094F88030072BBC
:102890000BD8DFE803F0130404040D0D0D0D002325
:1028A00084F88030062384F881302046FFF7EEFD5F
:1028B000286801380AD00C4B186038BDE36B43B16F
:1028C0001023E3632046FFF7E1FDF1E700F0A8FCE9
:1028D00038BD0648214600F001FBF1E7FFF700FF95
:1028E000C4E700BF840E002090030020FC0D0020F0
:1028F000F8B504460F462B4D2B6801332B60C66B91
:10290000002E49D016F0010607D0C66A2EB1304617
:10291000214600F00BFC0023E3622348214600F02F
:1029200025FBA36BC3B1636A67639F4214DB1E4838
:10293000214600F019FBE36BB3B1D90725D41B4B3B
:102940001B689C4218D0204600F0F0FA2868013835
:1029500018D0144B1860F8BD67621348214600F088
:1029600003FBE36B002BE8D10F48214600F0FCFB92
:102970000E4B1B689C42E6D10D4B01221A60286861
:102980000138E6D100F04CFCF8BD002ED7D030461F
:10299000214600F09DFBD2E70348214600F09EFA55
:1029A000BBE700BF90030020FC0D0020840E002038
:1029B000F80D00202DE9F043064683B09046994675
:1029C0001D4D2B6801332B60FFF740FD1B4B1C4C4A
:1029D0001B684FF0020ED3E90223276812EB0802AE
:1029E0002168206843EB090387F880E0002781F81D
:1029F000817050304FF000084FF00009CDE9008998
:102A000004F060FB2868013818BF286010D02068E7
:102A1000503004F00BFC96F88130053B012B04D8B4
:102A200003B0BDE8F043FFF75BBE03B0BDE8F08341
:102A300000F0F6FBEBE700BF90030020342F0020EE
:102A4000840E0020034B1B68984200D07047024858
:102A500000F0A8B8840E0020D80D002010B50F4A51
:102A60001368013313600E494FF0FF340B6883B1D4
:102A70005C421C40B4FA84F40120C4F11F0400FA43
:102A800004F023EA00030B601068013818BF1060DF
:102A900001D0204610BD00F0C3FBFAE790030020F0
:102AA0008403002008B50A4B1A6801321A6001221B
:102AB00002FA00F0074A11680843106018680138EC
:102AC00018BF186000D008BD00F0AAFB08BD00BF09
:102AD0009003002084030020F0B540F62855C2F290
:102AE0000005451B4CF63D73ED10C3F6F34303FBA5
:102AF00005F540F22456C2F2000685B006EBC52665
:102B000042F2352249F6B0271F2100230196C0F674
:102B10000002C0F600074FF40066044600970296D4
:102B2000FFF790FB40F6FC50C2F2000021462A4617
:102B300000F010FA204605B0F0BD00BF012803D018
:102B400028B90348FFF740BC0148FFF7C5BF7047ED
:102B5000280D00200120FFF7F1BF00BF0020FFF784
:102B6000EDBF00BF704700BF42F66533C0F60003FB
:102B7000036000234360704730B40299039C09B19D
:102B800005680D600CB14168216080E80C0030BC24
:102B9000704700BF42F66533C0F6000303600023B0
:102BA0004360704708B503461B684068984708BDF6
:102BB00040F68463C2F200031B680A4601461846C9
:102BC000FFF740BF40F6D85342F66532C2F2000329
:102BD000C0F600021A6000225A60704710B480E804
:102BE0000600019A00248260029A4461C260036177
:102BF000846110BC704700BF02680A4B10B453F8E0
:102C0000221084688C420BD1074943F822100168D6
:102C1000064A002342F821300168054A42F8213073
:102C200010BC7047B4550020B10E00082C5700208E
:102C3000A4580020F8B51026EFF31183314681F334
:102C400011880D4900220F680A600C4915460A6078
:102C500005E0EFF31183314681F311882746796946
:102C6000BC697D61BD6183F311883A693868FB688E
:102C70009847002CEDD1F8BDE00D0020F00D0020AC
:102C8000FFF7D8BF014B00DF70470000BF0000080E
:102C90001022EFF31183114681F311884269511C10
:102CA000416122B9064A1168106019B1886183F345
:102CB00011887047034A106083F31188704700BF82
:102CC000F00D0020E00D0020FFF7E2BFC0F3400050
:102CD00000290CBF002000F0010038B5154660B98E
:102CE0000F4C23689D610F4B1868013818BF18609E
:102CF0000FD0236800229A6138BD094C0846FFF7BF
:102D0000C7FF23689D61074B1868013818BF18601A
:102D1000EFD100F085FA236800229A6138BD00BF28
:102D2000840E00209003002010B5044603C803F071
:102D3000ADF922680A4B53F8221053F822000949D2
:102D400088420BD1A16843F8221022682169064B02
:102D500043F822102268054B43F8224010BD00BF03
:102D6000B4550020B10E00082C570020A4580020B4
:102D700002680A4B10B453F8221084688C420BD1BD
:102D8000074943F822100168064A002342F821301F
:102D90000168054A42F8213010BC7047B455002044
:102DA000B10E00082C570020A458002040F2000368
:102DB000C2F2000353F820300B60704730B40B466A
:102DC0001025EFF31184294681F31188054912B1CA
:102DD00051F82050156041F8203084F3118830BC40
:102DE000704700BF00000020084B1A6852B910203D
:102DF000EFF31182014681F3118805490A60054A03
:102E0000012111601A6801321A607047EC0D002030
:102E1000E80D0020E40D0020054A1368013B136013
:102E20002BB90449044A0B60126882F31188704779
:102E3000EC0D0020E40D0020E80D002010B510235B
:102E4000EFF31184194681F3118802F061FF84F3D6
:102E5000118810BD02F05CBF10B51023EFF3118490
:102E6000194681F3118802F0C9FF84F3118810BD5F
:102E700002F0C4BF03F04AB803F0A0B840F6E45330
:102E8000C2F2000300221A60704700BF094B012202
:102E90001A6000F180010346002243F8042F8B42A0
:102EA000FBD100230360044B05221A60034B01226F
:102EB0001A60704790030020F40D0020F80D0020E8
:102EC00003685A421340B3FA83F3C3F11F0300EBC4
:102ED0008300406800B11C38704700BF4B6A70B473
:102EE00000EB83056C6801F11C02A24213D0CD698E
:102EF0000E6A6E600E6A0A623560CA611CB170BCEF
:102F0000704700226A60012202FA03F3026822EA93
:102F100003030360F3E7CC69A242F2D00E6A666055
:102F20000E6A0A623460CA616C60E7E7074B426A66
:102F30001968496A914203DD054B01221A60704706
:102F40001B68DB6B002BF7D1704700BF840E00209D
:102F5000F80D002040F68463C2F20003084643F8EF
:102F60002210FFF749BB00BF704700BF704700BF8A
:102F7000012070470C4B0D4A1968126891B9D16B4A
:102F800081B90B49506A01EB8000416819B10968A9
:102F9000416001B11C398A4202D0064A0121116008
:102FA00005221A60704700BFF40D0020840E002037
:102FB000FC0D0020F80D0020034B1A68013A1A603E
:102FC00002B17047FFF7D6BFF40D002040F6FC5069
:102FD000C2F20000FFF7CEBF406000608160704722
:102FE0000E4B1A6801321A60026A82B90C4A816873
:102FF00002EB81014A681AB112684A6002B11C3AB8
:10300000A0F11C018A4206D0064A0121116018680D
:10301000013800F005B90522C260F8E790030020EE
:10302000FC0D0020F80D002008B50B4B1A6801328A
:103030001A600A4A02EB8000426822B1126801213C
:103040004260074A11601868013802D0024B1860CC
:1030500008BD00F0E5F808BD90030020FC0D00203D
:10306000F80D002070B5164B1A6801321A6002691B
:10307000A0F11C0162B1002908BF0020106018688F
:10308000013802D00E4B186070BD00F0C9F870BD59
:1030900002689042F3D00B4C826825680A4E6D6A34
:1030A000002908BF002006EB8206AA42706003DBFD
:1030B0002268D26B002AE2D0044A01211160DEE7C7
:1030C00090030020840E0020FC0D0020F80D00204D
:1030D00010B401F11C0251B1036863B15C6882E86D
:1030E00018005C685A602260C86210BC70470368B0
:1030F0000A46002BF2D10260F6E700BF03687BB1FD
:103100001A6893420ED05968516059685B600A6032
:103110001B600260B3F11C0007D000221A617047E7
:103120001846704700220260F4E7704710B4046844
:1031300001F11C030022A342CA6208D0CA69086ACE
:103140005060086A0B620260CB6110BC7047CC69AA
:10315000A34217BF0A6A026062600A6A1FBF0B625D
:103160001460CB610460F0E7F8B5CA6A4B6A0C469C
:1031700005461F4600EB83061AB11046FFF7D6FF3F
:10318000636A7268AAB1506804F11C012062506839
:10319000E261516001600C4A1168496A994202DC9F
:1031A0001368DB6B13B1094B01221A600523A3627C
:1031B000F8BD012202FA07F7296804F11C020F4347
:1031C0002F607260E7E700BF840E0020F80D00203A
:1031D000006800B11C387047012830B417D00E4980
:1031E00001F1800320B9043B1A681AB98B42FAD165
:1031F00030BC70471468944217BF5568186065600A
:1032000055681FBF52602C6012601C60ECE70348D9
:1032100030BCFFF73BBE00BF000E0020FC0D0020BD
:103220002DE9F843054600283DD0224EDFF898806E
:10323000214F3468E36B002B2CD02048FFF740FE71
:10324000A04212D01E4BDFF884901A68D9F800E033
:1032500001321A600C3004F10C01C4F828E003F0CC
:103260001BF8A36A3460C9F800300023C8F80030A6
:10327000B5B93D60104B134A116891B1196801311D
:1032800019601368002BD4D0FFF7FCFC3468E36BA3
:10329000002BD2D1D8F80030002BCED1002DE8D0B1
:1032A0003D60BDE8F883074A024EDFF81C80024FFC
:1032B000E7E700BF840E002090030020FC0D0020F3
:1032C000800E0020E00D0020F80D0020F40D0020FD
:1032D00038B50D4B00221A600C4B0D4C19600523BC
:1032E0008B6222680B490B606AB1254601E02368B6
:1032F0004BB12068013818BF2860F8D1FFF790FF64
:103300002368002BF5D138BDF80D0020840E002075
:1033100090030020F40D002040F6FC5008B5C2F2E6
:103320000000FFF7CDFD40F6F85240F684630146F9
:10333000C2F20002C2F200030024146000F10C008B
:10334000196002F0B3FF00BF08B5FFF7E5FF00BF4B
:1033500010B511460446FFF73FFE00232361636169
:10336000E361204610BD00BF70B5856804468D42FC
:1033700000DC70BDC6690023A0F11C00E361FFF70B
:10338000B7FA06B9A5610123E36170BD13680A4667
:1033900013B1496AFFF7E8BF704700BF436933B90B
:1033A000C26922B181698268C3618A4200DB7047C9
:1033B0001C38FFF79DBA00BF0A46496AFFF7D4BF21
:1033C000FFF7E4BFFFF7EABF0022FFF7CDBF00BF62
:1033D000FFF7E4BF0120FFF7FFBE00BF0020FFF7AB
:1033E000FBBE00BF002380E80A00704743685BB162
:1033F0001A689A4209D05968516059685B600A603E
:103400001B6042601346F2E7704700234360704739
:103410002DE9F84F2A4C804625682A4E336801333F
:10342000336007464FF0010B57F8043BDA464FF084
:103430000009002B14BF00220BF001020AB322681E
:10344000236882F880A083F88190FEF7FFFF38465A
:103450002946FFF73DFE3068FFF7E2FE95F8813020
:103460004FF0010B042B03D3052B1FD9062B16D0CD
:10347000D8F80030002B14BF00220BF00102002A04
:10348000DDD1BBF1000F02D0013BC8F8003030683D
:10349000013810D00B4B18605846BDE8F88FFFF785
:1034A0001FF94FF0010BD8F80030C2E7D8F8003010
:1034B0004FF0000BBDE7FFF7B3FE5846BDE8F88FAD
:1034C000840E0020900300202DE9F04F3B4C83B088
:1034D000256806463A4F396801313960D4F800E072
:1034E0004FF0030C216820688EF880C04FF0000E6A
:1034F00081F881E050304FF000084FF00009CDE92D
:10350000008903F0DFFD95F88130002B4ED0336841
:103510009B46002B4BD14FF0030A4FF0000906F1F8
:103520000408002B14BF00230BF001030BB3226827
:10353000236882F880A083F88190FEF787FF4046D9
:103540002946FFF7C5FD3868FFF76AFE95F8813018
:10355000033B032B26D8DFE803F00202021F336887
:103560004FF0000B002B14BF00230BF00103002BC6
:10357000DDD12068503003F059FEBBF1000F02D0BE
:103580003368013B33603868013813D00C4B186046
:10359000584603B0BDE8F08FFFF7A2F84FF0010BDB
:1035A0003368BEE733684FF0010BBAE733684FF07A
:1035B000010BB0E7FFF734FEEAE700BF840E0020FE
:1035C0009003002010B50B4B1A6801321A60026894
:1035D0000024002A02DD013A026001241868013843
:1035E00003D0044B1860204610BDFFF719FE20469B
:1035F00010BD00BF9003002010B50E4C23680133AE
:10360000236090E80C000132026053B10430FFF7F0
:1036100075FD002380F88030072380F88130FEF7A5
:1036200035FF2068013802D0024B186010BDFFF74B
:10363000F7FD10BD9003002000687047002380E86C
:103640000A0070472DE9F0410446DFF86880D8F899
:1036500000300133C8F800304368051D6BB1002706
:1036600005262846FFF74AFD80F8807080F88160C3
:10367000FEF70CFF6368002BF3D1D8F80030581E1A
:1036800014D00C4B186063686BB11A68934208D071
:103690005968516059685B600A601B602A60134674
:1036A000F2E700232B602046BDE8F081FFF7B8FD6C
:1036B0006368E9E79003002008B5084B1A680132F7
:1036C0001A600268114001601868013818BF18605C
:1036D00000D008BDFFF7A4FD08BD00BF9003002087
:1036E0002DE9F047044682B0DFF8A090D9F8003009
:1036F0000133C9F8003090E80C0011430160002B41
:1037000037D000260DF1080848F8046D051D07277D
:103710000FE081F8806081F881700846FEF7B6FE00
:103720002268DAF80C30CAF8082003B12660636812
:10373000E3B12846FFF7E2FCD0F848A00146DAF8EA
:10374000003022681BB102EA03008342E1D0DAF8BC
:1037500004301A42DDD14046FFF7BAFCE7E701A882
:10376000FFF7CCFC01462846FFF7B2FC019B002B7B
:10377000F5D1D9F80030581E04D0044B186002B0BF
:10378000BDE8F087FFF74CFDF9E700BF900300208C
:1037900070B50346134804680134046012F0020552
:1037A0000AD01C68214012D10C460068013815D09F
:1037B0000C4B1860204670BD0029F5D01C6801EA4A
:1037C00004068E4218BF2C46EFD1002CEDD0D20754
:1037D000EBD500221A6000680138E9D1FFF720FD1F
:1037E000204670BD900300202DE9F04F804689B03F
:1037F0000F4691463E4D2B6801332B60FFF7C8FF03
:103800000346002868D13B4C19F002012668226863
:1038100018BF3946236818BF07464FF0030C0690BF
:10382000206882F880C00DF1100E002283F88120FC
:10383000C6F848E0DDE91223503009F001094FF0E5
:10384000000A4FF0000BCDF80CC004970591CDF89D
:103850001C90CDE900AB03F035FC96F88130DDF823
:103860000CC06BB12068503003F0E0FC28680138D0
:103870002FD01F4B1860069B184609B0BDE8F08F8B
:10388000069F002FEED108F10408E2462268236863
:1038900082F880A083F88170FEF7D8FD404631465B
:1038A000FFF716FC2868FFF7BBFC96F88130032B66
:1038B00005D3052BD6D9062B01D1FEF711FF069BA8
:1038C000002BE3D02068503003F0B0FC28680138AA
:1038D000CFD1FFF7A5FCCEE72A68501E18BF28609D
:1038E00000D0C9E70393FFF79BFC039BC4E700BF2D
:1038F00090030020840E00202DE9F043074687B096
:103900000E4615462A4C236801332360FFF740FF1B
:10391000034600283ED1DFF89C9015F00202D9F84A
:10392000008018BF324605F0010518BF064602ABFD
:103930000296059504900392C8F848300437012692
:103940000025D9F80020D9F8003082F8806083F88B
:103950008150FEF77BFD38464146FFF7B9FB2068F2
:10396000FFF75EFC98F88130042B03D3052B04D9B4
:10397000062B0CD0049B002BE3D0206801380FD01D
:103980000B4B1860049B184607B0BDE8F083FEF7A8
:10399000A7FEEFE72268501E18BF206003D0F2E7B1
:1039A000FFF73EFCEEE70193FFF73AFC019BEAE7E5
:1039B00090030020840E002000238360C360036016
:1039C0004360704710B4C36800F10C016BB11A6812
:1039D0009A4208D05C6854605C685B6022601B603F
:1039E0000A601346F2E700230B60836800F10801C8
:1039F0006BB11A689A4208D05C6854605C685B607E
:103A000022601B600A601346F2E700230B6010BCC3
:103A1000704700BF2DE9F0472D4E0546D6F80080CF
:103A20002C4F3B6801333B604FF0010A00F108095D
:103A30006C6834B32B68013C1A1D0133092B85E8EF
:103A4000180055F8226001DD00232B60EB6801248B
:103A500063B105F10C00FFF751FB002380F88030C3
:103A6000072380F88130FEF711FD01243868013802
:103A700025D0184B1860002C08BF00263046BDE842
:103A8000F0873268336882F880A083F88140FEF7BF
:103A9000DDFC48464146FFF71BFB3868FFF7C0FBDB
:103AA00098F88130042BC3D3052B04D9062BBFD142
:103AB000FEF716FEBCE7264638680138D9D1FFF775
:103AC000AFFB002C08BF00263046BDE8F08700BFE2
:103AD000840E0020900300202DE9F04F3D4D83B06F
:103AE0002E6804463C4F396801313960D5F800E052
:103AF0004FF00308296828688EF880804FF0000E88
:103B000081F881E050304FF0000A4FF0000BCDE912
:103B100000AB03F0D7FA96F881308BB12868002407
:103B2000503003F083FB2546386801384CD02A4BCF
:103B30001860002C08BF0025284603B0BDE8F08FB0
:103B40006368F3B904F1080A99462A682B6882F879
:103B5000808083F88190FEF779FC50463146FFF76C
:103B6000B7FA3868FFF75CFB96F88130032B05D372
:103B7000052BD3D9062B01D1FEF7B2FD6368002BCC
:103B8000E3D02868503003F051FB236861681A1DA8
:103B900001330139092B6160236054F8225001DDA3
:103BA00000232360E36893B104F10C00FFF7A6FA49
:103BB000002380F88030072380F88130FEF766FC10
:103BC000012438680138B2D1FFF72AFBB1E701249C
:103BD000AAE700BF840E00209003002070B51A4DA4
:103BE0002B6801332B604368002BD4BF00260126CD
:103BF0003446C6B10268013B111D0132092A80E832
:103C00000C0050F8214001DD00230360C36853B16C
:103C10000C30FFF773FA002380F88030072380F818
:103C20008130FEF733FC2868013806D0064B186057
:103C3000002E08BF0024204670BDFFF7F1FA002EC9
:103C400008BF0024204670BD900300202DE9F84FE6
:103C50002B4E044637688B462A4D2B6801332B6068
:103C60004FF0010A4FF0000900F10C0863680A2BBD
:103C700021D021685A1C5B18092BC8BF0A3B0433AA
:103C800044F823B0A3686260002B37D004F1080029
:103C9000FFF734FA002380F88030072380F8813062
:103CA000FEF7F4FB0124286801381DD1FFF7B8FAAC
:103CB0002046BDE8F88F3268336882F880A083F828
:103CC0008190FEF7C3FB40463946FFF701FA2868AA
:103CD000FFF7A6FA97F88130042BC7D3052B08D835
:103CE000002428680138E1D0064B18602046BDE862
:103CF000F88F062BBAD1FEF7F3FCB7E70124F0E703
:103D0000840E0020900300202DE9F04F3C4D83B03D
:103D10002F68044689463B4E316801313160D5F841
:103D200000E04FF00308296828688EF880804FF083
:103D3000000E81F881E050304FF0000A4FF0000B88
:103D4000CDE900AB03F0BEF997F881306BB128687C
:103D50000024503003F06AFA306801382ED0294B25
:103D60001860204603B0BDE8F08F62680A2A04BFDD
:103D700004F10C0B9A462BD02868503003F056FA09
:103D800094E80A005A1C5B18092B626000DD0A3BAC
:103D9000043344F82390A368002B2FD004F10800CB
:103DA000FFF7ACF9002380F88030072380F88130DA
:103DB000FEF76CFB012430680138D0D1FFF730FAF0
:103DC000CFE7062B01D1FEF78BFC63680A2BD3D11A
:103DD0002A682B6882F8808083F881A0FEF736FB82
:103DE00058463946FFF774F93068FFF719FA97F823
:103DF0008130032BE9D3052BA9D9E2E70124ABE7F6
:103E0000840E00209003002038B5194C236801333C
:103E1000236043680A2B21D005685A1C5B19092BC3
:103E2000C8BF0A3B043340F823108368426053B193
:103E30000830FFF763F9002380F88030072380F80B
:103E40008130FEF723FB2068013803D0084B18604F
:103E5000012038BDFFF7E4F9012038BD20680138A2
:103E600018BF206001D0002038BDFFF7D9F9FAE76C
:103E70009003002038B5104B1A6801321A6045686B
:103E8000002DD4BF002501252C461DB10268043247
:103E900050F822401868013806D0074B1860002DF2
:103EA00008BF0024204638BDFFF7BAF9002D08BF2F
:103EB0000024204638BD00BF90030020002383600B
:103EC0000370436001230373704700BF00238360C6
:103ED0000370436001730361704700BF10B48368CF
:103EE00000F108016BB11A689A4208D05C6854600E
:103EF0005C685B6022601B600A601346F2E7002387
:103F00000B6010BC704700BF2DE9F047394F0446E5
:103F10003D68394E336801333360037B23B12A6B2C
:103F20000132022B2A6352D001239A464FF0000936
:103F300004F1080822789AB103BB237B002B44D0FC
:103F40002A6B013A012B2A634DD00024022B44D066
:103F5000306801380DD0284B18602046BDE8F08746
:103F6000002BEAD00123237065601C4630680138BD
:103F7000F1D1FFF755F92046BDE8F0873A683B6874
:103F800082F880A083F88190FEF760FA40462946C7
:103F9000FFF79EF8237B012B04D1606829461C3073
:103FA000FFF70AFA3068FFF73BF995F88130042BE8
:103FB00003D3052B07D9062B01D00123BAE7FEF75F
:103FC0008FFB0123B6E70023B4E71C46C0E7016975
:103FD00005F11C00FFF7F8F9A6E705F11C00FFF753
:103FE000F7F90024B4E705F11C00FFF7EBF9237B98
:103FF000ABE700BF840E00209003002038B5134CBF
:104000002368013323600378002533B9104B027B0A
:104010001B6801250570436032B92068013810D053
:104020000A4B1860284638BD196B022A29441963C7
:10403000F3D1016903F11C00FFF7C6F920680138CC
:10404000EED1FFF7EDF8284638BD00BF9003002001
:10405000840E0020F8B50446204D2B6801332B60F8
:1040600083688BB100F108073846FFF747F8237BD8
:104070000646012B2AD0002386F88030072386F8D5
:1040800081303046FEF702FA237B3BB16068026B59
:10409000013A012B026312D0022B0BD000232370B4
:1040A00063602868013802D00C4B1860F8BDFFF738
:1040B000B7F8F8BD60681C30FFF78AF9EEE71C30EE
:1040C000FFF780F9237B022BE8D1F3E7616800F169
:1040D0001C003A46FFF774F9CDE700BF90030020BB
:1040E00070B504460C4E33680133336083684BB1BE
:1040F00000F108052846FFF701F8FEF7C5FAA368A6
:10410000002BF7D13068013802D0034B186070BD26
:10411000FFF786F870BD00BF9003002008B5074B7D
:104120001A6801321A6001611868013818BF1860F6
:1041300000D008BDFFF774F808BD00BF9003002051
:1041400008B5074B1A6801321A6001731868013804
:1041500018BF186000D008BDFFF762F808BD00BFA7
:1041600090030020002380E80A007047002343608A
:104170000360704710B44368011D6BB11A689A421E
:1041800008D05C6854605C685B6022601B600A60F9
:104190001346F2E700230B6010BC70472DE9F8438B
:1041A0001A4E814637680C46194D2B6801332B6037
:1041B0000846FFF74FFF326833684FF000080126CA
:1041C00083F8818082F88060FEF740F909F10400ED
:1041D0003946FEF77DFF28680138FFF721F897F888
:1041E0008130042B08D201262046FFF78DFE0028DF
:1041F000FAD03046BDE8F883052B98BF4646F3D980
:10420000062BF0D1FEF76CFAEEE700BF840E00201B
:104210009003002010B50D4C2368013323604368E0
:1042200053B10430FEF76AFF002380F88030072383
:1042300080F88130FEF72AF92068013802D0034B5C
:10424000186010BDFEF7ECFF10BD00BF900300200A
:104250002DE9F0410446DFF84880D8F800300133FA
:10426000C8F80030436873B1071D0026072538469B
:10427000FEF744FF80F8806080F88150FEF706F971
:104280006368002BF3D1D8F80000013803D0044B49
:104290001860BDE8F081FEF7C3FFBDE8F08100BF04
:1042A000900300202DE9F047254C82B02768824614
:1042B0000E4690469946234D2B6801332B600846E5
:1042C000FFF7C8FEFEF7C2F82268032123682068C2
:1042D00082F88010002283F8812050304B464246FD
:1042E0004FF000094FF00008CDE9008902F0EAFE26
:1042F00097F88130EBB128680138FEF791FF20680C
:10430000503002F093FF97F88130032B0FD3002435
:10431000052B08D83046FFF7F7FD0028FAD02046D5
:1043200002B0BDE8F087062B01D1FEF7D9F90124D0
:10433000F0E70AF104003946FEF7CAFEDBE700BFEA
:10434000840E00209003002000B5012885B006D01F
:1043500090B90A4805B05DF804EBFEF735B8084B94
:1043600006480093074B0A2101934FF40053029330
:10437000054A0023FDF766FF05B000BD882E00202A
:10438000BC9A0008880E0020997300080120FFF7EE
:10439000DBBF00BF0020FFF7D7BF00BF0EB410B5D2
:1043A00083B005AC54F8042B6FF000412346019410
:1043B00000F02EF803B0BDE8104003B0704700BF16
:1043C00000207047F0B48C18A1429C46436809D283
:1043D0000D461E4615F8017BA54206F8017BF9D172
:1043E000691A5B184360CCF800200020F0BC7047CD
:1043F000014B0360704700BF609B0008034B10B582
:104400000446036002F07EFA204610BD609B00085F
:1044100070B50A4E82B0054668460C460096019576
:1044200000F06AF8C343DB0FA0422CBF002403F066
:1044300001040CB100232B5402B070BDD09A0008C7
:104440002DE9F043164683B01D4600220023804626
:10445000894604F0E3FF0A9C0C9F002834D09DF8A5
:104460002C00303804F0B8FCCDE900010023002214
:10447000C4F2100305F002F8A0B1302203E0AC4210
:1044800022702FD0013C23782E2B04BF14F8013C5E
:10449000013C0133DBB2392B2370F0D8284603B03E
:1044A000BDE8F0833B782D2BF8D1002203E0A54234
:1044B00008BF3A70013C23782E2B04BF14F8013C4E
:1044C000013C302BF3D0E9E700230022C4F224039F
:1044D0004046494604F0EEFC6A4601F0C5FADDE9C3
:1044E0000001C3E7312326B12B70336801333360F9
:1044F000D4E705F8013DD1E72DE9F04F46F26765B5
:10450000ADF53D7D0024C6F266650A9480460E91A5
:104510000B930792A3461595079B1F781D46013301
:1045200017B1252FF9D10127079CB5EB040940F0FD
:104530009A80D7F101070E9C38BF00275C45D8BF91
:1045400047F001073B46002F7FD16C1C6A78079427
:104550008DF8EE724FF0FF36129706972146013123
:10456000A2F120005A2800F29A82DFE810F0A2029D
:1045700098029802A802980298029802980298025B
:104580009802AE02B902980298009E009802BA0002
:10459000C000C000C000C000C000C000C000C0001B
:1045A000C000980298029802980298029802980215
:1045B000980298029802D1002E0198022E019802CA
:1045C000980298029802E90198029802AF019802B5
:1045D0009802980298029802CF0198029802EF017F
:1045E00098029802980298029802980298029802FB
:1045F000980298020D0265022E012E012E01FF0283
:104600006502980298026A0298027402BC02BF0214
:10461000D6029802DC0298028A02980298028D0261
:10462000980292023446D8F800304D4534BF2A46ED
:104630004A469E68BA924046A3492346B04720B9ED
:10464000BA9B9D4240F29C839B44D8F80030404680
:10465000DB689847002818BF4FF0FF3B58460DF520
:104660003D7DBDE8F08F0E9CD8F80030621ECBEB8C
:104670000202BCAC914538BF4A4644F8082D9E68FA
:10468000404607992346B0470028DED1BA9B99459A
:10469000DAD8CB444DE7129C0B9064421294069DED
:1046A00045F0040506950A7859E7084610F8012BED
:1046B0002A2A01F08C80A2F130040026092C014640
:1046C0003FF64EAF002610F8012B06EB860604EBF2
:1046D0004606A2F13004092C0146F4D946EAE676F2
:1046E0003EE7069D45F0800506950A7837E70C46BB
:1046F0000020A2F1300114F8012B00EB8000A2F1A0
:104700003005092D01EB40002146F2D9129027E730
:10471000069D079145F0100516928DF8EE3206952C
:10472000069CA00640F1E0830B9DE91D21F00701E6
:10473000D1E9002308310B9114461D46002A73F17C
:10474000000EC0F2918454EA05009DF8EE720CBF91
:10475000002301230122002EA2BF069820F0800032
:104760000690002E18BF43F00103002B00F0BA8220
:10477000012A00F06E83022A1CBF0DF5D2794A4649
:1047800001D1F9E15246E30843EA4573E90804F030
:1047900007000D461C4654EA050100F1300302F8FB
:1047A000013C02F1FF3AEDD1069CE00740F1FB81AC
:1047B000302B00F0F881A2F1020ACAEB090930237C
:1047C00002F8023CCDF84090F1E10B9C1692E21DFC
:1047D00022F0070202F108050F2E0B9507918DF8C4
:1047E000EE321568546800F31984731C00F0C78614
:1047F00000211191230E03F080034FF0000EDBB275
:104800008DF860E08DF8EFE223B12D2304F1004430
:104810008DF8EF3224F000474FF6FF7328463946F3
:104820004FF0FF32C7F6EF7304F034FE4FF001098A
:1048300058B94FF6FF73284639464FF0FF32C7F696
:10484000EF7304F01BFE00B981465FFA89F3284636
:10485000002B00F041842146169C2A46A4F16503F2
:10486000032B0B462E4634BF2024002434BF6E2574
:104870004E2504F00FFE002840F09B8604F149030A
:10488000DBB246348DF8615003258DF862408DF817
:1048900060301095BAAC9DF8EF229DF8EE7212B11F
:1048A0002D278DF8EE72DDF844E0109D0EEB050922
:1048B000002B40F0FE8308930DF1610A002F7AD09F
:1048C00009F101097CE000BF94030020069D0791D7
:1048D00045F0100516920695069C14F0200200F093
:1048E000F3820B9DEB1D23F00703D3E9004503F191
:1048F000080354EA050E0B930CBF0023012300228A
:104900004FF0000E8DF8EEE2002724E7069C079199
:1049100044F0100416920694069DA90640F1FF8209
:104920000B9CE31D23F00703D3E9004503F10803C3
:1049300054EA050E0B930CBF002301230122DFE78D
:10494000069C44F0080406940A7808E69A4C0791FD
:1049500016920A94069CA70640F10F830B9DEB1D4F
:1049600023F0070303F108040B94D3E90045DDF8B5
:1049700018E01EF0010F40F0F38254EA05000CBF6E
:10498000002301230222BBE70B9B0B9D1B68043510
:10499000079116920B958DF860304FF0000E0124B0
:1049A0008DF8EEE210940DF1600A0024DDF84090DD
:1049B00011940894BAAC069DA90748BF09F10209F1
:1049C000089D4D45B8BF4D461495069D15F08405CC
:1049D0000F9540F0F980129DDDF850E0CEEB050513
:1049E000002D139540F3F080139D102D0E9D05F1C1
:1049F000FF350C95CBEB05051795D8BF139D40F3FC
:104A000012822F46102F28BF1027139D264606E03E
:104A1000BA9B0F2B7FF618AE102D40F30382D8F807
:104A20000030BA979C68404664493A463346103D88
:104A3000A0470028ECD008E6079116928DF8EE32D8
:104A40006EE60A7808466C2A00F05585069D45F00A
:104A50001005069583E5069C0791A7068DF8EE32B2
:104A600000F1D182069CE50600F12E83069C6406C7
:104A700040F18A850B9D2B6804350B95A3F800B097
:104A80004AE50791169247E74D4D079116920A9510
:104A900060E7069D45F4007506950A785FE5079185
:104AA00016928DF8EE32002A3FF4CFAD8DF86020DB
:104AB00073E70A78002B7FF452AD20234FE5069D63
:104AC00045F0010506950A7849E50B9C0B9D246885
:104AD000281D002C1294FFF6DEAD0A780B903EE5FF
:104AE0000A782B233BE507911692F5E60B9B0B9D6D
:104AF0001B680435DDF818E00B9500251C4630488E
:104B00005B1B18BF012307914EF0020E7821CDF8F0
:104B100018E00A9002221691F2E6069C44F0200466
:104B200006940A781BE516920B9A8DF8EE32D2F8AD
:104B300000A0244B141DBAF1000F08BF9A46002EA6
:104B400007910B945046C0F2DE840021324600F0FB
:104B5000FDFE002800F02A85CAEB0000B042A8BF85
:104B60003046109000258DF8EE521EE7069D45F068
:104B7000400506950A78F2E468ABDDF828E00333D7
:104B8000220904F00F0142EA057228091EF80110FB
:104B90001446054654EA05009A46197003F1FF339E
:104BA000EED10DF5D279CAEB0909CDF84090002479
:104BB00011940896BAAC81E6009A0008A40300207C
:104BC0004C9A0008E09A00080E9D013D0C959DF856
:104BD000EE32002B40F08B80069DAA0700F1048185
:104BE0000F9D802D00F09F80089DC9EB0509B9F14C
:104BF000000F37DD0C9DB9F1100FCBEB05050895C3
:104C0000D8BF4D461ADD2E46102E28BF10264D4621
:104C1000274605E0BA9B0F2B7FF616AD102D0CDD55
:104C2000D8F80030BA969C684046A54932463B46C3
:104C3000103DA0470028EDD007E53C46089AD8F87B
:104C40000030954238BF2A469E68BA9240469C4939
:104C50002346B04700287FF4F8ACBA9B9D423FF64C
:104C6000F3ACCB440C9DD8F80030CBEB0502109D83
:104C70004046AA4228BF2A46BA929D68514623461A
:104C8000A84700287FF4E1ACBA9B109D9D423FF6F7
:104C9000DBAC109DAB44119D002D71D0102D0C9DEF
:104CA000CBEB0509D8BF119D7FF7BDACB9F1100F53
:104CB00034BF4F461027119D264606E0BA9B0F2BA6
:104CC0007FF6C2AC102D7FF7ADACD8F80030BA97A4
:104CD0009C6840467A493A463346103DA047002832
:104CE000ECD0B2E4994610930DF5D27A5FE70C9DB3
:104CF000D8F80030CBEB0502012A28BF0122BAA95F
:104D00009D68BA92404606312346A84700287FF4A2
:104D10009CACBA9B002B3FF498AC0F9D0BF1010BA0
:104D2000802D7FF461AF129DDDF850E0CEEB0505DC
:104D3000002D0F957FF758AF102D0C9DCBEB05057F
:104D40001395D8BF0F9D40F39E812F46102F28BF8B
:104D500010270F9D264606E0BA9B0F2B7FF674ACFA
:104D6000102D40F38F81D8F80030BA979C684046E8
:104D700053493A463346103DA0470028ECD064E43E
:104D8000119DAB44069D6B077FF5C6AB129DDDF808
:104D900050E0CEEB0509B9F1000F7FF7BDAB0C9DDC
:104DA000B9F1100FCBEB050AD8BF4D4640F3D183C4
:104DB000BAF1100F34BF574610274D46264606E07D
:104DC000BA9B0F2B7FF640AC102D40F3C183D8F86F
:104DD0000030BA979C6840463A493A463346103DFF
:104DE000A0470028ECD030E40C9DD8F80030CBEB85
:104DF0000502169D3021022A28BF02228DF8EC12EE
:104E00008DF8ED52BA929D684046BBA92346A8474B
:104E100000287FF41AACBA9B012B7FF615AC0BF17E
:104E2000020BDDE63446179AD8F80030954238BFB9
:104E30002A469E68BA92404622492346B047002837
:104E40007FF403ACBA9B9D423FF6FEAB139DAB448F
:104E5000BDE6DDF818E01EF0200F00F09F8009226B
:104E60000023A24273EB05003CBF0DF5D07A0AF196
:104E7000030A80F0E9800A2200232046294604F034
:104E800053FB3034024600EB8000A4EB40040B4699
:104E90008AF800400025092494429D415146144659
:104EA0000AF1FF3A1D46E6D30B460DF5D2793034B0
:104EB000CAEB090903F8014CCDF8409077E600BF32
:104EC00094030020A4030020069C14F0100340F07B
:104ED0008980069D15F0400200F02283DDF82CE069
:104EE0001A46BEF8004025E0069CE1060ED4069D59
:104EF0006A060BD5DDF82CE0BEF900400EF1040E79
:104F0000E517CDF82CE022462B4617E40B9D2B68C5
:104F10002C1DDD170B941A461C462B460EE4069CEE
:104F2000E20612D4069D6B060FD5DDF82CE00122B7
:104F3000BEF80040002554EA05000EF1040E0CBF37
:104F400000230123CDF82CE0DAE40B9D2B682C1D07
:104F500000250B941C465B1B18BF01230122CFE4E4
:104F60000023022254EA05013FF4CAAC069A012349
:104F700042F0020206920222C2E4069DED063BD4F4
:104F8000069C640640F1C482DDF82CE00025BEF8E2
:104F900000400EF1040ECDF82CE0E8E4092C5BD9BA
:104FA0004CF6CD400DF5D07A0AF1030ACCF6CC4090
:104FB000A0FB0413DB08303403EB8301A4EB4101B5
:104FC000092B52468AF800101C460AF1FF3AEFD826
:104FD0000DF5D2793034CAEB090902F8014CCDF84D
:104FE0004090E4E50B9D2B682C1D00250B941C467E
:104FF0005B1B18BF012383E40B9C2368251D0B95C5
:105000001C460025B3E40B9D5A462B68D117043586
:10501000C3F800B059600B95FFF77EBADDF858E091
:10502000BEF1670318BF0123BEF1470F0CBF002379
:1050300003F00103002B42D1069810F001033ED18A
:1050400011930F26FFF7D6BB0DF5D2790DF5D07A67
:105050000AF1030A4B462AE70DF5D2790DF5D07A0D
:105060000AF1030A4A46B5E7644265EB45052D2778
:1050700054EA05010CBF002301238DF8EE720122D2
:10508000FFF769BB3446139AD8F80030954238BF11
:105090002A469E68BA92404671492346B047002886
:1050A0007FF4D3AABA9B9D423FF6CEAA0F9DAB4494
:1050B0009AE5002508950DF1600AFFF7FFBB0F3E4A
:1050C00011960F26FFF796BB0B9D2B6804350B95A9
:1050D000C3F800B0FFF720BA0DF5367A21465246E4
:1050E000BA9300F0C1FCB6ADD5E90045CDE90C019D
:1050F0000022204600232946CDE9084504F08EF918
:1051000068AC033400283DD168AD0335CDF840B01C
:10511000B3462E464746DDE908890023C4F224033E
:1051200000224046494604F00DF8524600F09CFC2F
:1051300049A3D3E900230DF5387E04460D46CEE998
:10514000004503F0AFFC00230022C4F2240303F067
:10515000B1FE04F0BBF9BA9C00F13005B6A80134E9
:10516000D0E9008906F8015900220023404649464B
:10517000BA9404F053F934460028CED05E46DDF8E8
:1051800040B0B846169DA5F14503222B00F2AC8134
:10519000DFE813F0F200AA016800AA01AA01AA013F
:1051A000AA01AA01AA01AA01AA01AA01AA01AA01A7
:1051B000AA01AA01AA01AA01AA01AA01AA01AA0197
:1051C000AA01AA01AA01AA01AA01AA01AA01AA0187
:1051D000AA01AA01F20023006800BA9B002B40F04C
:1051E0004D8230238DF861300DF1620516B9069CB1
:1051F000E70702D52E2305F8013BDDE90C0100226B
:10520000002304F00BF9002840F034824FF0FF3700
:10521000002E40F0FF826C1E0094BAAC00220734CE
:105220000DF16103DDE90C0101920294FFF708F929
:10523000002E00F09A80E91901312B46302203F844
:10524000012B8B42FBD10137ED192D1A9DF86030EF
:105250001095BAACFFF71FBB7B14AE47E17A843FD1
:1052600094030020BA9D002E08BF0126B542AC462B
:1052700000F34382002D40F00083DDE90C010022A1
:105280000023059504F0CAF858B9DDE90C01AEA376
:10529000D3E9002304F0CEF8DDF814C0002840F074
:1052A0002C8230238DF861300DF16205069C04F0EC
:1052B00001072EB9E3075CBF3746B14605D5012784
:1052C0002E2305F8013B4FF00109DDE90C01002216
:1052D000002304F0A3F800283BD1002E00F0EB825D
:1052E0002C46B8AD08950023C4F224030022DDE962
:1052F0000C0103F0DFFD089A00F0B6FB0DF5387ED7
:10530000DEE90023CDE90C0119461046059204930D
:1053100004F0DCF800F1300104F8011B059A049B4D
:10532000104619460022002304F078F82546012390
:1053300000B1002313F0FF0FD5D0013E40F0BC8137
:10534000DDE90C010022002304F068F8002800F0D9
:10535000B2820DF16100002F00F043822EB1AE1930
:10536000302305F8013BB542FBD1281A9DF8603087
:105370001090BAACFFF78FBABA9D169B4FF0000E93
:105380001493AC46CDF840E0002D00F01F81637807
:10539000601C8DF86130002E40F0FF81069CE40710
:1053A0005CBF0DF162070DF5D27906D52E238DF87D
:1053B00062300DF163070DF5D279431C994540F237
:1053C00075814578BAAC0195BAAD0DF161037E1EC9
:1053D000224600200021073500960295FFF730F89D
:1053E00000220023CDE90C23DDF8E8C20026814627
:1053F0000CF1FF33BA93DDE90C010022002304F025
:105400000DF806F1FF3CB0B94FF0FF3C002E40F024
:105410008C817D1E009500250195BAAD4B46DDE9D6
:105420000C0122460735CDF814C00295FFF708F8A5
:10543000DDF814C081465EB107EB0C0101313B463B
:10544000302203F8012B8B42FBD10CF1010C674495
:10545000109D7DB1069DEA070CD4B94580F06381AB
:1054600017F8013C013F302B00F053812E2B08BF71
:10547000013F0137BA9B149D002B3D70C0F244815F
:105480002B227A700237092B40F3E880159E514693
:1054900086FB03E0DA17C2EBA00202EB8200A3EB6B
:1054A00040003030092A0D46134601F8010DEFDCAB
:1054B0003033D9B22B4603F8021DB4A807309A4501
:1054C0003A4602D809E013F8011F834202F8011B93
:1054D000F9D1BCA8431B163BFF18C9EB07079DF881
:1054E00060301097FFF7D7B9002410949DF8603012
:1054F000BAACFFF7D0B9069C013144F02004069401
:105500004278FFF72CB800F079FA1090FFF72ABB29
:105510000B9D2B682C1D0B9400251C46FFF727BA0A
:105520000B9D069C2B6814F4007105F104040B9488
:105530004FF000051C4633D05B1B18BF0123FFF75B
:10554000DFB900BFAFF300802D431CEBE2361A3FFA
:105550003446D8F80030554534BF2A4652469E6836
:10556000BA924046AA492346B04700287FF46DA866
:10557000BA9B9D423FF668A8CB44FEF7CDBF002200
:1055800011920626FFF736B9069CA0053FF59CADA3
:105590000B9C236804340B94C3F800B0FEF7BCBF27
:1055A0005B1B18BF01230A46FFF7AAB91096FFF745
:1055B000D9BA41348DF86140032410948DF86050BD
:1055C0008DF862502B46BAACFFF765B9DDE90C01E6
:1055D0000022002303F022FF002840F0D780B8AC5F
:1055E0004FF0FF33BA930894274602E0BA9B013B81
:1055F000BA930023C4F224030022DDE90C0103F076
:1056000059FC3A4600F030FA0DF5387ECDE90C0130
:10561000DEE90045002200232046294603F0FEFE75
:105620000028E3D12046294603F050FF00F1300363
:105630008DF861304EB9069CE1075EBF0DF162073F
:105640000DF16109BAAC7FF5D6AE2E238DF862302C
:105650000DF163070DF16109BAACCCE630229B185D
:105660003A70BA1CC9EB02027B7010929DF8603050
:10567000FFF711B9771E0DF16100D9E5631C0DF537
:10568000D2794B453CBF22460DF1610002D32CE19B
:105690001A460B465278591C494500F8012BF7D39E
:1056A000E4430DF16105A1444D449FE5AC4600265D
:1056B0000DF16109BAAC9BE6DDE90C010022002383
:1056C00003F0ACFE00287FF43BAE0023C4F22403B9
:1056D0000022DDE90C0103F0EDFB089A00F0C4F9AB
:1056E000B8AACDE90C01D2E9000103F0EFFE00F108
:1056F000300304F8013B25461FE6169901220239C2
:10570000013E149110923FE62D227A705B420237DF
:10571000B9E63A4605E012F8013D013F302B7FF42F
:10572000A5AE4F45F7D13B78A0E6B8A93D46089114
:105730000023C4F224030022DDE90C0103F0BAFBCC
:10574000089A00F091F9B8AACDE90C01D2E900015C
:1057500003F0BCFE00F1300305F8013B013E2F468B
:105760000BD1DDE90C010022002303F057FE06F106
:10577000FF3C00287FF45FAE4BE6DDE90C01002220
:10578000002303F04BFE0028D2D0EAE730238DF847
:105790006130002E7FF459AF4DE7A31C0DF5D2798F
:1057A0002E224B458DF8622028BF0DF16307BFF410
:1057B0007FAF0DF16301184613F8012B013E01F88C
:1057C000012B0F463FF4F9AD9945F4D870E70B9CD7
:1057D0004A782668043446EAE6760B940146FEF7DA
:1057E000BEBEB9F1000F3FF4C0ADA8420ED215F80D
:1057F000013C013D302B6CD02E2B18BF01352D1AEA
:105800009DF860301095BAACFFF745B82B78F3E7F8
:10581000A40300202C46B8AD08950023C4F224034D
:105820000022DDE90C0103F045FB089A00F01CF9A9
:105830000DF5387ECDE90C01DEE9000103F046FEEE
:1058400000F1300304F8013B013E25460CD1DDE9AF
:105850000C010022002303F0E1FD771E00283FF435
:10586000DAAC0DF16100E3E4DDE90C010022002374
:1058700003F0D4FD0028D0D0E9E7631C0DF5D27900
:105880004B453CBF22460DF1610002D32AE01A4687
:105890000B465278591C494500F8012BF7D30234C6
:1058A00009F101052D1B0DF16103013EC9EB040453
:1058B0005D193619FAE46C1E0094BAAC0022073464
:1058C0000DF16103DDE90C0101920294FEF7B8FDD0
:1058D00041E52A46854299D012F8013D013D302B21
:1058E0008AD1F7E70DF16105E0E40DF161057DE492
:1058F000026844F66D63C4F2C61303FB02F202F5BC
:105900004052393203FB02F101F54051393103FBBA
:1059100001F3890C520DC90103F5405310B439331A
:10592000044601EB425000EB536020F0004023603E
:1059300010BC704740F2B430C2F20000FFF7D8BF8D
:1059400040F2B433C2F2000318607047032AF0B487
:10595000C9B212D8002A4AD003788B420BD0431C1C
:10596000821803E013F8014B8C4204D0934200F1FB
:105970000100F7D10020F0BC704710F0030F034680
:10598000EAD101EB012601EB0626042A01EB0626EB
:105990001DD01848D0F800C01748076803E0043A43
:1059A000042A234611D91C4654F8040B7040CCEB52
:1059B000000525EA00003842F1D01D781846013371
:1059C0008D42D8D09C42F8D1E9E782B120460378D5
:1059D0008B42D0D0431C821803E013F8014B8C4259
:1059E000C9D0934200F10100F7D10020C3E710466F
:1059F000C1E700BFE89A0008F09A0008830770B476
:105A000021D1174A0368156816495A1B0E6822EA05
:105A10000303334218BF03460AD10146024651F838
:105A2000043F04325C1B24EA03033342F7D01346DD
:105A30001A782AB1194611F8014F0133002CFAD116
:105A4000181A70BC7047037843B10146024611F83A
:105A5000014F0132002CFAD1101AF2E71846F0E794
:105A6000E89A0008F09A000830B583B0CDE900014B
:105A7000019B0098C3F30A54A4F57E7107391329DA
:105A800017DC00294DDB4FF6FF74C0F20F0444FA17
:105A900001F101EA0304044321D103F00043DDE9ED
:105AA000000101930094C2E90001DDE9000103B0A7
:105AB00030BD33291EDCA4F58264033C4FF0FF3176
:105AC00021FA04F414EA000520D020EA040082E858
